{
  "contractName": "ReadingList",
  "abi": [
    {
      "constant": true,
      "inputs": [
        {
          "name": "",
          "type": "uint256"
        }
      ],
      "name": "slots",
      "outputs": [
        {
          "name": "id",
          "type": "uint256"
        },
        {
          "name": "linkId",
          "type": "uint256"
        }
      ],
      "payable": false,
      "stateMutability": "view",
      "type": "function",
      "signature": "0x387dd9e9"
    },
    {
      "constant": true,
      "inputs": [],
      "name": "linksCount",
      "outputs": [
        {
          "name": "",
          "type": "uint256"
        }
      ],
      "payable": false,
      "stateMutability": "view",
      "type": "function",
      "signature": "0x3d04f325"
    },
    {
      "constant": true,
      "inputs": [],
      "name": "slotsCount",
      "outputs": [
        {
          "name": "",
          "type": "uint256"
        }
      ],
      "payable": false,
      "stateMutability": "view",
      "type": "function",
      "signature": "0x81083bd4"
    },
    {
      "constant": true,
      "inputs": [
        {
          "name": "",
          "type": "uint256"
        }
      ],
      "name": "links",
      "outputs": [
        {
          "name": "id",
          "type": "uint256"
        },
        {
          "name": "url",
          "type": "string"
        },
        {
          "name": "upVotes",
          "type": "uint256"
        }
      ],
      "payable": false,
      "stateMutability": "view",
      "type": "function",
      "signature": "0x881d8a40"
    },
    {
      "inputs": [],
      "payable": false,
      "stateMutability": "nonpayable",
      "type": "constructor",
      "signature": "constructor"
    }
  ],
  "bytecode": "0x608060405234801561001057600080fd5b50610028610125640100000000026401000000009004565b61003f610125640100000000026401000000009004565b610056610125640100000000026401000000009004565b61006d610125640100000000026401000000009004565b610084610125640100000000026401000000009004565b610120608060405190810160405280604a81526020017f68747470733a2f2f65616e642e636f2f7768792d7468652d323173742d63656e81526020017f747572792d6e656564732d612d6e65772d6b696e642d6f662d6d696e642d643381526020017f3731643130623230323400000000000000000000000000000000000000000000815250600161017d640100000000026401000000009004565b61029f565b6003600081548092919060010191905055506040805190810160405280600354815260200160008152506001600060035481526020019081526020016000206000820151816000015560208201518160010155905050565b6002600081548092919060010191905055506060604051908101604052806002548152602001838152602001600081525060008060025481526020019081526020016000206000820151816000015560208201518160010190805190602001906101e89291906101fa565b50604082015181600201559050505050565b828054600181600116156101000203166002900490600052602060002090601f016020900481019282601f1061023b57805160ff1916838001178555610269565b82800160010185558215610269579182015b8281111561026857825182559160200191906001019061024d565b5b509050610276919061027a565b5090565b61029c91905b80821115610298576000816000905550600101610280565b5090565b90565b6102f3806102ae6000396000f3fe608060405260043610610062576000357c0100000000000000000000000000000000000000000000000000000000900463ffffffff168063387dd9e9146100675780633d04f325146100bd57806381083bd4146100e8578063881d8a4014610113575b600080fd5b34801561007357600080fd5b506100a06004803603602081101561008a57600080fd5b81019080803590602001909291905050506101d5565b604051808381526020018281526020019250505060405180910390f35b3480156100c957600080fd5b506100d26101f9565b6040518082815260200191505060405180910390f35b3480156100f457600080fd5b506100fd6101ff565b6040518082815260200191505060405180910390f35b34801561011f57600080fd5b5061014c6004803603602081101561013657600080fd5b8101908080359060200190929190505050610205565b6040518084815260200180602001838152602001828103825284818151815260200191508051906020019080838360005b8381101561019857808201518184015260208101905061017d565b50505050905090810190601f1680156101c55780820380516001836020036101000a031916815260200191505b5094505050505060405180910390f35b60016020528060005260406000206000915090508060000154908060010154905082565b60025481565b60035481565b6000602052806000526040600020600091509050806000015490806001018054600181600116156101000203166002900480601f0160208091040260200160405190810160405280929190818152602001828054600181600116156101000203166002900480156102b75780601f1061028c576101008083540402835291602001916102b7565b820191906000526020600020905b81548152906001019060200180831161029a57829003601f168201915b505050505090806002015490508356fea165627a7a723058204227b2ecae14b13146997ba9d67407cc02c5929240d610f19a59b2313c51b9f80029",
  "source": "pragma solidity ^0.5.0;\n\ncontract ReadingList {\n\n\n    struct Link {\n        uint id;\n        string url;\n        // dateIn\n        // dateOut\n        uint upVotes;\n    }\n\n    struct Slot {\n        uint id;\n        uint linkId;\n    }\n\n    // store item in slot\n\n    // read item from slot\n    mapping(uint => Link) public links;\n    mapping(uint => Slot) public slots;\n\n    uint public linksCount;\n\n    uint public slotsCount;\n\n    constructor() public {\n        addSlot();\n        addSlot();\n        addSlot();\n        addSlot();\n        addSlot();\n\n        addLink('https://eand.co/why-the-21st-century-needs-a-new-kind-of-mind-d371d10b2024', 1);\n\n    }\n\n    function addLink (string memory _url,uint _slot) private {\n        linksCount ++;\n        links[linksCount] = Link(linksCount, _url, 0);\n        //slots[_slot][1] = linksCount;\n    }\n    function addSlot () private {\n        slotsCount ++;\n        slots[slotsCount] = Slot(slotsCount,0);\n    }\n}",
  "sourcePath": "/Users/joeramulders/Documents/solidity/reading-list/contracts/ReadingList.sol",
  "compiler": {
    "name": "solc",
    "version": "0.5.0+commit.1d4f565a.Emscripten.clang"
  },
  "schemaVersion": "3.0.0",
  "updatedAt": "2018-12-23T15:19:20.660Z",
  "devdoc": {
    "methods": {}
  },
  "userdoc": {
    "methods": {}
  }
}